{
  "_format": "hh-sol-artifact-1",
  "contractName": "Plan",
  "sourceName": "contracts/Plan.sol",
  "abi": [
    {
      "inputs": [],
      "stateMutability": "nonpayable",
      "type": "constructor"
    },
    {
      "anonymous": false,
      "inputs": [
        {
          "indexed": true,
          "internalType": "uint256",
          "name": "_planId",
          "type": "uint256"
        },
        {
          "indexed": true,
          "internalType": "uint256",
          "name": "_tId",
          "type": "uint256"
        }
      ],
      "name": "buyPlanEvent",
      "type": "event"
    },
    {
      "anonymous": false,
      "inputs": [
        {
          "indexed": true,
          "internalType": "uint256",
          "name": "_planId",
          "type": "uint256"
        },
        {
          "indexed": false,
          "internalType": "string",
          "name": "_planName",
          "type": "string"
        },
        {
          "indexed": false,
          "internalType": "uint256",
          "name": "_planCost",
          "type": "uint256"
        },
        {
          "indexed": false,
          "internalType": "uint256",
          "name": "_planDuration",
          "type": "uint256"
        }
      ],
      "name": "createPlanEvent",
      "type": "event"
    },
    {
      "anonymous": false,
      "inputs": [
        {
          "indexed": true,
          "internalType": "uint256",
          "name": "_planId",
          "type": "uint256"
        }
      ],
      "name": "deletePlanEvent",
      "type": "event"
    },
    {
      "anonymous": false,
      "inputs": [
        {
          "indexed": true,
          "internalType": "uint256",
          "name": "_planId",
          "type": "uint256"
        },
        {
          "indexed": false,
          "internalType": "string",
          "name": "_planName",
          "type": "string"
        },
        {
          "indexed": false,
          "internalType": "uint256",
          "name": "_planCost",
          "type": "uint256"
        },
        {
          "indexed": false,
          "internalType": "uint256",
          "name": "_planStart",
          "type": "uint256"
        },
        {
          "indexed": false,
          "internalType": "uint256",
          "name": "_planDuration",
          "type": "uint256"
        },
        {
          "indexed": false,
          "internalType": "uint256",
          "name": "_planEnd",
          "type": "uint256"
        }
      ],
      "name": "editPlanEvent",
      "type": "event"
    },
    {
      "inputs": [
        {
          "internalType": "address",
          "name": "_user",
          "type": "address"
        }
      ],
      "name": "addPlanControllers",
      "outputs": [],
      "stateMutability": "nonpayable",
      "type": "function"
    },
    {
      "inputs": [
        {
          "internalType": "uint256",
          "name": "_planId",
          "type": "uint256"
        },
        {
          "internalType": "uint256",
          "name": "_tId",
          "type": "uint256"
        }
      ],
      "name": "buyPlan",
      "outputs": [],
      "stateMutability": "payable",
      "type": "function"
    },
    {
      "inputs": [
        {
          "internalType": "string",
          "name": "_planName",
          "type": "string"
        },
        {
          "internalType": "uint256",
          "name": "_planCost",
          "type": "uint256"
        },
        {
          "internalType": "uint256",
          "name": "_planDuration",
          "type": "uint256"
        }
      ],
      "name": "createPlan",
      "outputs": [],
      "stateMutability": "nonpayable",
      "type": "function"
    },
    {
      "inputs": [
        {
          "internalType": "string",
          "name": "_planName",
          "type": "string"
        },
        {
          "internalType": "uint256",
          "name": "_planCost",
          "type": "uint256"
        },
        {
          "internalType": "uint256",
          "name": "_planStart",
          "type": "uint256"
        },
        {
          "internalType": "uint256",
          "name": "_planDuration",
          "type": "uint256"
        },
        {
          "internalType": "uint256",
          "name": "_planEnd",
          "type": "uint256"
        }
      ],
      "name": "createSpecialPlan",
      "outputs": [],
      "stateMutability": "nonpayable",
      "type": "function"
    },
    {
      "inputs": [
        {
          "internalType": "uint256",
          "name": "_planId",
          "type": "uint256"
        }
      ],
      "name": "deletePlan",
      "outputs": [],
      "stateMutability": "nonpayable",
      "type": "function"
    },
    {
      "inputs": [
        {
          "internalType": "uint256",
          "name": "_planId",
          "type": "uint256"
        },
        {
          "internalType": "string",
          "name": "_planName",
          "type": "string"
        },
        {
          "internalType": "uint256",
          "name": "_planCost",
          "type": "uint256"
        },
        {
          "internalType": "uint256",
          "name": "_planStart",
          "type": "uint256"
        },
        {
          "internalType": "uint256",
          "name": "_planDuration",
          "type": "uint256"
        },
        {
          "internalType": "uint256",
          "name": "_planEnd",
          "type": "uint256"
        }
      ],
      "name": "editPlan",
      "outputs": [],
      "stateMutability": "nonpayable",
      "type": "function"
    },
    {
      "inputs": [],
      "name": "fetchActivePlans",
      "outputs": [
        {
          "components": [
            {
              "internalType": "uint256",
              "name": "planId",
              "type": "uint256"
            },
            {
              "internalType": "string",
              "name": "planName",
              "type": "string"
            },
            {
              "internalType": "uint256",
              "name": "planCost",
              "type": "uint256"
            },
            {
              "internalType": "uint256",
              "name": "planStart",
              "type": "uint256"
            },
            {
              "internalType": "uint256",
              "name": "planDuration",
              "type": "uint256"
            },
            {
              "internalType": "uint256",
              "name": "planEnd",
              "type": "uint256"
            },
            {
              "internalType": "bool",
              "name": "planValidity",
              "type": "bool"
            },
            {
              "internalType": "uint256",
              "name": "planSubscribers",
              "type": "uint256"
            }
          ],
          "internalType": "struct Plan.planDetails[]",
          "name": "",
          "type": "tuple[]"
        }
      ],
      "stateMutability": "view",
      "type": "function"
    },
    {
      "inputs": [],
      "name": "fetchControllers",
      "outputs": [
        {
          "components": [
            {
              "internalType": "uint256",
              "name": "controllerId",
              "type": "uint256"
            },
            {
              "internalType": "address",
              "name": "controllerAddress",
              "type": "address"
            },
            {
              "internalType": "bool",
              "name": "controllerAccess",
              "type": "bool"
            }
          ],
          "internalType": "struct Plan.controllerDetails[]",
          "name": "",
          "type": "tuple[]"
        }
      ],
      "stateMutability": "view",
      "type": "function"
    },
    {
      "inputs": [],
      "name": "fetchNonActivePlans",
      "outputs": [
        {
          "components": [
            {
              "internalType": "uint256",
              "name": "planId",
              "type": "uint256"
            },
            {
              "internalType": "string",
              "name": "planName",
              "type": "string"
            },
            {
              "internalType": "uint256",
              "name": "planCost",
              "type": "uint256"
            },
            {
              "internalType": "uint256",
              "name": "planStart",
              "type": "uint256"
            },
            {
              "internalType": "uint256",
              "name": "planDuration",
              "type": "uint256"
            },
            {
              "internalType": "uint256",
              "name": "planEnd",
              "type": "uint256"
            },
            {
              "internalType": "bool",
              "name": "planValidity",
              "type": "bool"
            },
            {
              "internalType": "uint256",
              "name": "planSubscribers",
              "type": "uint256"
            }
          ],
          "internalType": "struct Plan.planDetails[]",
          "name": "",
          "type": "tuple[]"
        }
      ],
      "stateMutability": "view",
      "type": "function"
    },
    {
      "inputs": [
        {
          "internalType": "uint256",
          "name": "",
          "type": "uint256"
        }
      ],
      "name": "planControllers",
      "outputs": [
        {
          "internalType": "uint256",
          "name": "controllerId",
          "type": "uint256"
        },
        {
          "internalType": "address",
          "name": "controllerAddress",
          "type": "address"
        },
        {
          "internalType": "bool",
          "name": "controllerAccess",
          "type": "bool"
        }
      ],
      "stateMutability": "view",
      "type": "function"
    },
    {
      "inputs": [
        {
          "internalType": "address",
          "name": "",
          "type": "address"
        }
      ],
      "name": "planControllersBool",
      "outputs": [
        {
          "internalType": "bool",
          "name": "",
          "type": "bool"
        }
      ],
      "stateMutability": "view",
      "type": "function"
    },
    {
      "inputs": [
        {
          "internalType": "uint256",
          "name": "",
          "type": "uint256"
        }
      ],
      "name": "plans",
      "outputs": [
        {
          "internalType": "uint256",
          "name": "planId",
          "type": "uint256"
        },
        {
          "internalType": "string",
          "name": "planName",
          "type": "string"
        },
        {
          "internalType": "uint256",
          "name": "planCost",
          "type": "uint256"
        },
        {
          "internalType": "uint256",
          "name": "planStart",
          "type": "uint256"
        },
        {
          "internalType": "uint256",
          "name": "planDuration",
          "type": "uint256"
        },
        {
          "internalType": "uint256",
          "name": "planEnd",
          "type": "uint256"
        },
        {
          "internalType": "bool",
          "name": "planValidity",
          "type": "bool"
        },
        {
          "internalType": "uint256",
          "name": "planSubscribers",
          "type": "uint256"
        }
      ],
      "stateMutability": "view",
      "type": "function"
    },
    {
      "inputs": [
        {
          "internalType": "uint256",
          "name": "_controllerId",
          "type": "uint256"
        }
      ],
      "name": "removePlanControllers",
      "outputs": [],
      "stateMutability": "nonpayable",
      "type": "function"
    },
    {
      "inputs": [
        {
          "internalType": "address",
          "name": "_ticketContractAddr",
          "type": "address"
        }
      ],
      "name": "ticketContract",
      "outputs": [],
      "stateMutability": "nonpayable",
      "type": "function"
    },
    {
      "inputs": [],
      "name": "ticketContractAddr",
      "outputs": [
        {
          "internalType": "address",
          "name": "",
          "type": "address"
        }
      ],
      "stateMutability": "view",
      "type": "function"
    },
    {
      "inputs": [],
      "name": "withdrawMoney",
      "outputs": [],
      "stateMutability": "nonpayable",
      "type": "function"
    }
  ],
  "bytecode": "0x60806040523480156200001157600080fd5b5060018054336001600160a01b031990911681179091556200003f9062000118602090811b620016b617901c565b600060028190557f17ef568e3e12ab5b9c7254a8d58478811de00f9e6eb34345acd53bf8fd09d3ec819055600180547f17ef568e3e12ab5b9c7254a8d58478811de00f9e6eb34345acd53bf8fd09d3ed80546001600160a81b0319166001600160a01b03909216918217600160a01b179055825260056020908152604092839020805460ff19169092179091558151808301909252601d82527f506c616e2e736f6c20636f6e7472616374206973206465706c6f796564000000828201526200011291906200170162000169821b17901c565b6200022d565b6040516001600160a01b0382166024820152620001669060440160408051601f198184030181529190526020810180516001600160e01b0390811663161765e160e11b17909152620001b416565b50565b6200016681604051602401620001809190620001d5565b60408051601f198184030181529190526020810180516001600160e01b0390811663104c13eb60e21b17909152620001b416565b80516a636f6e736f6c652e6c6f67602083016000808483855afa5050505050565b600060208083528351808285015260005b818110156200020457858101830151858201604001528201620001e6565b8181111562000217576000604083870101525b50601f01601f1916929092016040019392505050565b611e37806200023d6000396000f3fe6080604052600436106100f35760003560e01c8063925a06c61161008a578063ac44600211610059578063ac446002146102f1578063b162061614610306578063c954700b1461033a578063eb2fd7351461035a57600080fd5b8063925a06c61461022e5780639e845b691461024e5780639f99f69714610263578063a1d9c1ab1461028357600080fd5b80632d1fbc71116100c65780632d1fbc71146101aa57806340ada25c146101ca5780635b89557c146101ea57806378fb00fd1461020c57600080fd5b806306ea5071146100f857806308605d401461013d57806326517b1714610152578063296db9521461018a575b600080fd5b34801561010457600080fd5b50610128610113366004611841565b60056020526000908152604090205460ff1681565b60405190151581526020015b60405180910390f35b61015061014b366004611871565b61037a565b005b34801561015e57600080fd5b50600654610172906001600160a01b031681565b6040516001600160a01b039091168152602001610134565b34801561019657600080fd5b506101506101a53660046118dc565b610666565b3480156101b657600080fd5b506101506101c536600461194b565b610838565b3480156101d657600080fd5b506101506101e5366004611841565b610a02565b3480156101f657600080fd5b506101ff610b2a565b60405161013491906119fa565b34801561021857600080fd5b50610221610e23565b6040516101349190611ab0565b34801561023a57600080fd5b50610150610249366004611b14565b610fa1565b34801561025a57600080fd5b506101ff611045565b34801561026f57600080fd5b5061015061027e366004611b14565b611341565b34801561028f57600080fd5b506102cc61029e366004611b14565b600460205260009081526040902080546001909101546001600160a01b03811690600160a01b900460ff1683565b604080519384526001600160a01b039092166020840152151590820152606001610134565b3480156102fd57600080fd5b506101506113b4565b34801561031257600080fd5b50610326610321366004611b14565b611415565b604051610134989796959493929190611b2d565b34801561034657600080fd5b50610150610355366004611841565b6114e4565b34801561036657600080fd5b50610150610375366004611b7c565b611535565b60008281526003602052604090206006015460ff16151560011480156103c9575060008281526003602052604090206005015415806103c9575060008281526003602052604090206005015442105b6104265760405162461bcd60e51b815260206004820152602360248201527f43616e6e6f742073756273637269626520746f206120617263686976656420706044820152623630b760e91b60648201526084015b60405180910390fd5b6000828152600360208190526040909120015442116104935760405162461bcd60e51b8152602060048201526024808201527f43616e6e6f742073756273637269626520617320706c616e2064696e277420736044820152631d185c9d60e21b606482015260840161041d565b60008281526003602052604090206002015434146104ec5760405162461bcd60e51b81526020600482015260166024820152751b5bdb995e481cd95b9d08084f481c1b185b90dbdcdd60521b604482015260640161041d565b60008281526003602052604081206007810180549192600192610510908490611be3565b92505081905550600081600101805461052890611bfb565b80601f016020809104026020016040519081016040528092919081815260200182805461055490611bfb565b80156105a15780601f10610576576101008083540402835291602001916105a1565b820191906000526020600020905b81548152906001019060200180831161058457829003601f168201915b5050506002850154600486015493945092429250600091506105c39083611be3565b6006546040516303f41cdd60e41b81529192506001600160a01b031690633f41cdd0906105fe90899088908c90899089908990600401611c36565b600060405180830381600087803b15801561061857600080fd5b505af115801561062c573d6000803e3d6000fd5b50506040518892508991507f2e3e4253293271e7231cd2d64a3bcc2aabfeb7c377ef8dcc409ae090c5a07cfd90600090a350505050505050565b3360009081526005602052604090205460ff166106955760405162461bcd60e51b815260040161041d90611c74565b60008781526003602081905260409091209081015442106107175760405162461bcd60e51b815260206004820152603660248201527f506c616e2063616e6e6f7420626520656469746564206265636175736520706c604482015275185b881a185cc8185b1c9958591e481cdd185c9d195960521b606482015260840161041d565b600681015460ff1615156001146107705760405162461bcd60e51b815260206004820152601a60248201527f43616e6e6f74204564697420612044656c6574656420506c616e000000000000604482015260640161041d565b61077e600182018888611761565b50600281018590556107938362015180611cbe565b60048201556107a58462015180611cbe565b6107af9042611be3565b6003820155816107c557600060058201556107ec565b6107cf8285611be3565b6107dc9062015180611cbe565b6107e69042611be3565b60058201555b877f94efa39f399f830137b80f93cdde31ef7dd0156e0cb9f374e0a60618f8a6d5bf88888888888860405161082696959493929190611d06565b60405180910390a25050505050505050565b3360009081526005602052604090205460ff166108675760405162461bcd60e51b815260040161041d90611c74565b846108af5760405162461bcd60e51b8152602060048201526018602482015277706c616e4e616d652063616e6e6f7420626520656d70747960401b604482015260640161041d565b816108fc5760405162461bcd60e51b815260206004820152601d60248201527f706c616e4475726174696f6e2063616e6e6f7420626520302064617973000000604482015260640161041d565b6000805461090b906001611be3565b600081815260036020526040902081815590915061092d600182018989611761565b50600281018690556109428562015180611cbe565b61094c9042611be3565b600382015561095e8462015180611cbe565b600482015582610974576000600582015561099b565b61097e8386611be3565b61098b9062015180611cbe565b6109959042611be3565b60058201555b60068101805460ff1916600117905560405182907fcc95fa730aa96e653d21db488dc70df5b959688bc0d4dcde382bf0c7e6e2ea8b906109e2908b908b908b908a90611d3f565b60405180910390a26109f8600080546001019055565b5050505050505050565b6001546001600160a01b03163314610a2c5760405162461bcd60e51b815260040161041d90611d66565b6001600160a01b03811660009081526005602052604090205460ff1615610aa75760405162461bcd60e51b815260206004820152602960248201527f74686973207573657220616c726561647920616464656420746f20706c616e4360448201526837b73a3937b63632b960b91b606482015260840161041d565b600160026000828254610aba9190611be3565b9091555050600280546000818152600460209081526040808320938455600193840180546001600160a01b039097166001600160a01b031990971687179055935482528382208301805460ff60a01b1916600160a01b17905593815260059093529120805460ff19169091179055565b60606000610b3760005490565b905060008060005b83811015610be95760036000610b56836001611be3565b815260208101919091526040016000206006015460ff161580610bc4575060036000610b83836001611be3565b815260200190815260200160002060050154600014158015610bc4575060036000610baf836001611be3565b81526020019081526020016000206005015442115b15610bd757610bd4600184611be3565b92505b80610be181611da7565b915050610b3f565b5060008267ffffffffffffffff811115610c0557610c05611dc2565b604051908082528060200260200182016040528015610c3e57816020015b610c2b6117e5565b815260200190600190039081610c235790505b50905060005b84811015610e1a5760036000610c5b836001611be3565b815260208101919091526040016000206006015460ff161580610cc9575060036000610c88836001611be3565b815260200190815260200160002060050154600014158015610cc9575060036000610cb4836001611be3565b81526020019081526020016000206005015442115b15610e08576000610cdb826001611be3565b9050600360008281526020019081526020016000206040518061010001604052908160008201548152602001600182018054610d1690611bfb565b80601f0160208091040260200160405190810160405280929190818152602001828054610d4290611bfb565b8015610d8f5780601f10610d6457610100808354040283529160200191610d8f565b820191906000526020600020905b815481529060010190602001808311610d7257829003601f168201915b505050918352505060028201546020820152600382015460408201526004820154606082015260058201546080820152600682015460ff16151560a082015260079091015460c0909101528351849086908110610dee57610dee611dd8565b6020908102919091010152610e04600185611be3565b9350505b80610e1281611da7565b915050610c44565b50949350505050565b600254606090600080805b838111610e7b576000818152600460205260409020600190810154600160a01b900460ff1615151415610e6957610e66600184611be3565b92505b80610e7381611da7565b915050610e2e565b5060008267ffffffffffffffff811115610e9757610e97611dc2565b604051908082528060200260200182016040528015610ee257816020015b6040805160608101825260008082526020808301829052928201528252600019909201910181610eb55790505b50905060005b848111610e1a576000818152600460205260409020600190810154600160a01b900460ff1615151415610f8f576000818152600460209081526040918290208251606081018452815481526001909101546001600160a01b03811692820192909252600160a01b90910460ff161515918101919091528251829190849086908110610f7557610f75611dd8565b6020908102919091010152610f8b600185611be3565b9350505b80610f9981611da7565b915050610ee8565b3360009081526005602052604090205460ff16610fd05760405162461bcd60e51b815260040161041d90611c74565b6000818152600360205260409020600681015460ff1615156001146110375760405162461bcd60e51b815260206004820152601c60248201527f43616e6e6f742064656c65746520612064656c6574656420506c616e00000000604482015260640161041d565b600601805460ff1916905550565b6060600061105260005490565b905060008060005b838110156111075760036000611071836001611be3565b815260208101919091526040016000206006015460ff16151560011480156110e25750600360006110a3836001611be3565b815260200190815260200160002060050154600014806110e25750600360006110cd836001611be3565b81526020019081526020016000206005015442105b156110f5576110f2600184611be3565b92505b806110ff81611da7565b91505061105a565b5060008267ffffffffffffffff81111561112357611123611dc2565b60405190808252806020026020018201604052801561115c57816020015b6111496117e5565b8152602001906001900390816111415790505b50905060005b84811015610e1a5760036000611179836001611be3565b815260208101919091526040016000206006015460ff16151560011480156111ea5750600360006111ab836001611be3565b815260200190815260200160002060050154600014806111ea5750600360006111d5836001611be3565b81526020019081526020016000206005015442105b1561132f5760006111fc826001611be3565b9050600060036000838152602001908152602001600020905080604051806101000160405290816000820154815260200160018201805461123c90611bfb565b80601f016020809104026020016040519081016040528092919081815260200182805461126890611bfb565b80156112b55780601f1061128a576101008083540402835291602001916112b5565b820191906000526020600020905b81548152906001019060200180831161129857829003601f168201915b505050918352505060028201546020820152600382015460408201526004820154606082015260058201546080820152600682015460ff16151560a082015260079091015460c090910152845185908790811061131457611314611dd8565b602090810291909101015261132a600186611be3565b945050505b8061133981611da7565b915050611162565b6001546001600160a01b0316331461136b5760405162461bcd60e51b815260040161041d90611d66565b60009081526004602090815260408083206001908101805460ff60a01b198116600160a01b179091556001600160a01b031684526005909252909120805460ff19169091179055565b3360009081526005602052604090205460ff166113e35760405162461bcd60e51b815260040161041d90611c74565b604051339081904780156108fc02916000818181858888f19350505050158015611411573d6000803e3d6000fd5b5050565b6003602052600090815260409020805460018201805491929161143790611bfb565b80601f016020809104026020016040519081016040528092919081815260200182805461146390611bfb565b80156114b05780601f10611485576101008083540402835291602001916114b0565b820191906000526020600020905b81548152906001019060200180831161149357829003601f168201915b50505060028401546003850154600486015460058701546006880154600790980154969793969295509093509160ff169088565b3360009081526005602052604090205460ff166115135760405162461bcd60e51b815260040161041d90611c74565b600680546001600160a01b0319166001600160a01b0392909216919091179055565b3360009081526005602052604090205460ff166115645760405162461bcd60e51b815260040161041d90611c74565b826115ac5760405162461bcd60e51b8152602060048201526018602482015277706c616e4e616d652063616e6e6f7420626520656d70747960401b604482015260640161041d565b806115f95760405162461bcd60e51b815260206004820152601d60248201527f706c616e4475726174696f6e2063616e6e6f7420626520302064617973000000604482015260640161041d565b60008054611608906001611be3565b600081815260036020526040902081815590915061162a600182018787611761565b50600281018490554260038201556116458362015180611cbe565b60048201556000600582015560068101805460ff1916600117905560405182907fcc95fa730aa96e653d21db488dc70df5b959688bc0d4dcde382bf0c7e6e2ea8b90611698908990899089908990611d3f565b60405180910390a26116ae600080546001019055565b505050505050565b6040516001600160a01b03821660248201526116fe9060440160408051601f198184030181529190526020810180516001600160e01b031663161765e160e11b179052611740565b50565b6116fe816040516024016117159190611dee565b60408051601f198184030181529190526020810180516001600160e01b031663104c13eb60e21b1790525b80516a636f6e736f6c652e6c6f67602083016000808483855afa5050505050565b82805461176d90611bfb565b90600052602060002090601f01602090048101928261178f57600085556117d5565b82601f106117a85782800160ff198235161785556117d5565b828001600101855582156117d5579182015b828111156117d55782358255916020019190600101906117ba565b506117e192915061182c565b5090565b604051806101000160405280600081526020016060815260200160008152602001600081526020016000815260200160008152602001600015158152602001600081525090565b5b808211156117e1576000815560010161182d565b60006020828403121561185357600080fd5b81356001600160a01b038116811461186a57600080fd5b9392505050565b6000806040838503121561188457600080fd5b50508035926020909101359150565b60008083601f8401126118a557600080fd5b50813567ffffffffffffffff8111156118bd57600080fd5b6020830191508360208285010111156118d557600080fd5b9250929050565b600080600080600080600060c0888a0312156118f757600080fd5b87359650602088013567ffffffffffffffff81111561191557600080fd5b6119218a828b01611893565b989b909a509798604081013598606082013598506080820135975060a09091013595509350505050565b60008060008060008060a0878903121561196457600080fd5b863567ffffffffffffffff81111561197b57600080fd5b61198789828a01611893565b909a90995060208901359860408101359850606081013597506080013595509350505050565b6000815180845260005b818110156119d3576020818501810151868301820152016119b7565b818111156119e5576000602083870101525b50601f01601f19169290920160200192915050565b60006020808301818452808551808352604092508286019150828160051b87010184880160005b83811015611aa257603f1989840301855281516101008151855288820151818a870152611a50828701826119ad565b838a0151878b0152606080850151908801526080808501519088015260a0808501519088015260c08085015115159088015260e093840151939096019290925250509386019390860190600101611a21565b509098975050505050505050565b602080825282518282018190526000919060409081850190868401855b82811015611b0757815180518552868101516001600160a01b03168786015285015115158585015260609093019290850190600101611acd565b5091979650505050505050565b600060208284031215611b2657600080fd5b5035919050565b60006101008a8352806020840152611b478184018b6119ad565b604084019990995250506060810195909552608085019390935260a0840191909152151560c083015260e09091015292915050565b60008060008060608587031215611b9257600080fd5b843567ffffffffffffffff811115611ba957600080fd5b611bb587828801611893565b90989097506020870135966040013595509350505050565b634e487b7160e01b600052601160045260246000fd5b60008219821115611bf657611bf6611bcd565b500190565b600181811c90821680611c0f57607f821691505b60208210811415611c3057634e487b7160e01b600052602260045260246000fd5b50919050565b86815260c060208201526000611c4f60c08301886119ad565b90508560408301528460608301528360808301528260a0830152979650505050505050565b6020808252602a908201527f4f6e6c7920506c616e436f6e74726f6c6c65722063616e2063616c6c207468696040820152693990333ab731ba34b7b760b11b606082015260800190565b6000816000190483118215151615611cd857611cd8611bcd565b500290565b81835281816020850137506000828201602090810191909152601f909101601f19169091010190565b60a081526000611d1a60a08301888a611cdd565b9050856020830152846040830152836060830152826080830152979650505050505050565b606081526000611d53606083018688611cdd565b6020830194909452506040015292915050565b60208082526021908201527f4f6e6c79204f776e65722063616e2063616c6c20746869732066756e6374696f6040820152603760f91b606082015260800190565b6000600019821415611dbb57611dbb611bcd565b5060010190565b634e487b7160e01b600052604160045260246000fd5b634e487b7160e01b600052603260045260246000fd5b60208152600061186a60208301846119ad56fea264697066735822122051d6fc4b4c345da67784b7f93782144e1e10f5e27e1bcd7d2753cb6d3533fec564736f6c634300080a0033",
  "linkReferences": {},
  "deployedLinkReferences": {}
}